:020000040800F2
:1000000000400020750C0008050C0008070C0008D3
:1000100000000000000000000000000000000000E0
:10002000000000000000000000000000090C0008B3
:1000300000000000000000000B0C00080D0C000880
:10004000C50C0008C50C0008C50C0008C50C00084C
:10005000C50C0008C50C0008C50C0008C50C00083C
:10006000C50C0008C50C0008C50C0008C50C00082C
:10007000C50C0008C50C0008C50C0008C50C00081C
:10008000C50C0008C50C0008C50C0008C50C00080C
:10009000C50C0008C50C0008C50C0008C50C0008FC
:1000A000C50C0008C50C0008C50C0008C50C0008EC
:1000B000C50C0008C50C0008C50C0008C50C0008DC
:1000C00010B5064C2378002B07D1054B002B02D02E
:1000D000044800E000BF0123237010BD040000208D
:1000E00000000000340D0008044B10B5002B03D0B5
:1000F0000349044800E000BF10BDC04600000000F6
:1001000008000020340D0008002243088B4274D3FD
:1001100003098B425FD3030A8B4244D3030B8B4208
:1001200028D3030C8B420DD3FF22090212BA030C11
:100130008B4202D31212090265D0030B8B4219D3F2
:1001400000E0090AC30B8B4201D3CB03C01A524112
:10015000830B8B4201D38B03C01A5241430B8B425A
:1001600001D34B03C01A5241030B8B4201D30B0343
:10017000C01A5241C30A8B4201D3CB02C01A52416A
:10018000830A8B4201D38B02C01A5241430A8B422D
:1001900001D34B02C01A5241030A8B4201D30B0216
:1001A000C01A5241CDD2C3098B4201D3CB01C01A30
:1001B000524183098B4201D38B01C01A524143093A
:1001C0008B4201D34B01C01A524103098B4201D328
:1001D0000B01C01A5241C3088B4201D3CB00C01A95
:1001E000524183088B4201D38B00C01A524143080D
:1001F0008B4201D34B00C01A5241411A00D2014632
:10020000524110467047FFE701B5002000F006F8A4
:1002100002BDC0460029F7D076E770477047C04658
:1002200010B5040000F064FCFA218900FFF76CFFB0
:1002300000F066F8012000222100404200F030F872
:10024000002010BD1023064A10B5116800200B4392
:100250001360FFF7E5FF00F0BDFC002010BDC046B5
:1002600000200240024A1368013313607047C04601
:1002700020000020014B18687047C0462000002075
:1002800037B50190FFF7F6FF019C0500631C5A1E6D
:100290009341E418FFF7EEFF401BA042FAD337BDAD
:1002A00070B58901002814DA0F23C0B20340083B5F
:1002B000114A9B089B009B18032210409040FC327F
:1002C0001500114085408140DC69AC432143D96170
:1002D00070BD032583082840A840FC352E00074A3E
:1002E0009B009B18C02286402940814092009C5868
:1002F000B44321439950EBE700ED00E000E100E05A
:10030000094A431E012093420DD8C021074A0848DC
:100310005360036A09061B021B0A0B430362002099
:100320000723906013607047FFFFFF0010E000E0BC
:1003300000ED00E0F0B5564A0B688218541EA24149
:1003400089B00393002304320592039ADA4001D165
:1003500009B0F0BD01229A4094466446039A2240B7
:10036000029200D192E04A6801921022019E9643C7
:10037000022E0DD107240F271C40A400A740DA0845
:1003800092008218156ABD430F69A7403D4315626C
:10039000032214005D00AC40E4430768013E27409F
:1003A0000497019F3A40AA40049F3A430260012EFD
:1003B0000ED8CA688668AA402640324382606246E8
:1003C00046689643019AD206D20F9A403243426061
:1003D000C26814408A68AA401443019AC460D200DB
:1003E00054D501262B4A1D009469344394619269C7
:1003F0009C0832400792079A274AA400A418A268D2
:10040000944603221540AD000C32AA40674697433C
:100410009022D2059446002260450DD01F4A944692
:100420003200604508D01E4E9218B04204D01D4ED6
:100430000132B04200D0059AAA403A43A2601A4A5B
:10044000029C1668029D019FE4433543FF0301D4DB
:100450003500254015605668029D019F3543BF0356
:1004600001D43500254055609668029D019F3543B3
:10047000FF0201D4350025409560D568029E019F9A
:100480002E43BF0201D425402E00D66001335CE725
:1004900000F0FFB7001002400000014000040048D7
:1004A00000080048000C004800040140002A01D068
:1004B000816170478162FCE7F0B5036885B0050093
:1004C000DB0733D42B689B0700D58AE02B681B071A
:1004D00000D5CAE02B685B0700D5EDE02B68DB0692
:1004E0001AD56A69BC4C0423012A00D059E1616B1A
:1004F00002260B436363636B1A436263FFF7BAFE22
:100500000700636B334200D144E1F821626BAB69B1
:100510008A43DB00134363632B689B0600D567E1C6
:10052000696A002900D0A4E1002018E00C21AA4C3F
:1005300062680A40042A0BD063680B40082B10D174
:10054000C02263685202134080225202934208D1B3
:1005500023689B03B6D56B68002BB3D1012005B08F
:10056000F0BD6B68012B13D1802322685B0213431B
:100570002360FFF77FFE80260700B6022368334220
:10058000A0D1FFF777FEC01B6428F7D90320E6E768
:10059000002B16D12368914A8026134023602368DC
:1005A0008F4AB60213402360FFF764FE07002368FA
:1005B000334200D186E7FFF75DFEC01B6428F6D901
:1005C000E4E7052B05D180232268DB021343236077
:1005D000CAE72368814A134023602368804A134096
:1005E000C6E70C227C4C636813420BD0636813404F
:1005F000082B15D1C02263685202134080221202D8
:1006000093420DD123689B0702D5EB68012BA5D13E
:10061000F82122682B698A43DB001343236055E7E6
:10062000EA680123002A0FD02268022613432360C0
:10063000FFF720FE070023683342E9D1FFF71AFED7
:10064000C01B0228F7D9A1E7226802269A4322603C
:10065000FFF710FE07002368334200D136E7FFF7AB
:1006600009FEC01B0228F6D990E7EA6901235A4C1B
:10067000002A10D0626A022613436362FFF7FAFD74
:100680000700636A334200D024E7FFF7F3FDC01B85
:100690000228F6D97AE7626A02269A436262FFF775
:1006A000E9FD0700636A334200D113E7FFF7E2FD7B
:1006B000C01B0228F6D969E780220021464C52056A
:1006C000E3690091134208D1E3691343E361E369ED
:1006D00013400393039B012300938027414E7F0027
:1006E00033683B4206D0AB68012B13D1226A134317
:1006F000236230E033683B433360FFF7BBFD01907A
:1007000033683B42EFD1FFF7B5FD019BC01A642867
:10071000F6D93BE70122002B14D1236A0227934329
:100720002362236A033293432362FFF7A3FD06008B
:10073000236A3B4225D0FFF79DFD2B4B801B98423F
:10074000F6D923E7052B0BD1216A013B0B4323622A
:10075000236A1A432262FFF78DFD022706000DE08F
:10076000236A934304222362236A9343C0E7FFF77B
:1007700081FD1D4B801B984200D907E7236A3B424D
:10078000F5D0009B012B00D0A8E6E369174A13407F
:10079000E361A3E6FFF76EFDC01B022800D8B0E6B8
:1007A000F4E6053203D1626B9A436263ADE6626B95
:1007B0000226134301226363636B93436363FFF772
:1007C00059FD0700636B334200D1A5E6FFF752FDE8
:1007D000C01B0228F6D9D9E600100240FFFFFEFF39
:1007E000FFFFFBFF0070004088130000FFFFFFEFDA
:1007F0000C21464C62680A408A4209D063680B406B
:10080000082B0ED1C022636852021340934208D1D4
:10081000636BDB0300D483E62B6A012B00D09DE6DB
:100820007EE62B6A002B11D08026636B7602334361
:100830006363FFF71FFD0700636B334200D06FE671
:10084000FFF718FDC01B0228F6D99FE6636B304AFC
:10085000802613406363FFF70DFD07007602636B8C
:10086000334200D15CE6FFF705FDC01B0228F6D934
:100870008CE60C22254C63681340082B00D16DE6F2
:100880002368244A1340236002292FD1FFF7F2FC8A
:1008900080260700B6042368334221D10F22E36A81
:1008A00093432A6B1343E362A96AEB6A62680B43C2
:1008B000194980250A4013436360802322685B0442
:1008C00013432360FFF7D6FC0600AD0423682B42D8
:1008D00000D029E6FFF7CEFC801B0228F6D955E6AA
:1008E000FFF7C8FCC01B0228D5D94FE6FFF7C2FCB2
:1008F00080250600AD0423682B4200D114E6FFF7E3
:10090000B9FC801B0228F6D940E6C0460010024020
:10091000FFFFFEFFFFFFFFFEFF7FC2FF70B5194C18
:1009200088B010222100684600F0F2F9210004ADE1
:1009300010221031280000F0EBF90C22124E7368DF
:100940001A40082A04D00C2A1AD1104808B070BDE9
:100950000F206A46990C0140545CF26A0240A95C7F
:10096000C0228020520213404002834201D1084835
:1009700002E09342FBD10548FFF7C6FB6043E5E781
:100980000348E3E74C0D000800100240006CDC0255
:1009900000127A00F7B501224F4C0600236801913E
:1009A00013408B421FD33268930728D4D3072ED429
:1009B0000123226801991A40914200D27EE03368F7
:1009C000464C5B0700D580E0FFF7A8FF6368444A08
:1009D0001B061B0FD35CD840424B18600020FFF76A
:1009E0001FFC00200AE02368019993430B43236016
:1009F00023681340019A9A42D5D00120FEBDF02011
:100A000036494B688343B06803434B60CEE7726856
:100A1000324D012A1AD12B689B03EED503216B6856
:100A20008B4313436B60FFF725FC73680700012BB2
:100A30001CD10C226B681340042BB9D0FFF71AFCB1
:100A4000294BC01B9842F4D90320D7E7022A03D1CF
:100A50002B689B01E2D4D0E7032A03D16B6BDB0345
:100A6000DCD4CAE72B689B07D8D4C6E7022B0BD18E
:100A70000C226B681340082B9AD0FFF7FBFB1A4B34
:100A8000C01B9842F4D9DFE7032B11D00C226B680E
:100A9000134200D18CE7FFF7EDFB134BC01B9842CC
:100AA000F4D9D1E7FFF7E6FB0F4BC01B9842CBD838
:100AB0000C226B6813409342F4D179E722689A4381
:100AC000226022681A4298D179E76368074A134086
:100AD000F2681343636077E7002002400010024091
:100AE0006C0D00080000002088130000FFF8FFFFD5
:100AF000014B18687047C0460000002010B5102454
:100B000092B03422002105A800F00BF92200002148
:100B100001A800F006F9022305A80593013B0893FC
:100B20000994FFF7C9FC0021072301A80193029152
:100B300003910491FFF72EFF12B010BD10B586B0DF
:100B4000FFF780FBFFF7DAFF1422002101A800F075
:100B5000E8F88020C0241D4AC0025169E401014325
:100B60005161536921000340009300221848009B03
:100B7000FFF79CFC012302930023019401A9144870
:100B8000802403930493FFF7D5FBA40121000122E5
:100B90000F48FFF78BFC80210022C9010C48FFF7AA
:100BA00085FCFA204000FFF76BFB2100002208487B
:100BB000FFF77CFC80210122C9010548FFF776FC84
:100BC000FA204000FFF75CFBE0E7C046001002405F
:100BD0000004004801200A4B82B0996901439961E1
:100BE00080219A69490502400092009ADA690A4315
:100BF000DA61DB690B400193019B02B07047C0468C
:100C0000001002407047FEE77047704710B5FFF7CD
:100C100029FB10BD0121114B11481A680A431A60C3
:100C20005A6802405A601A680E4802401A601A68F0
:100C30000D4802401A605A680C4802400F205A6062
:100C4000DA6A8243DA621A6B094802401A635A6B05
:100C50008A435A6300229A607047C04600100240DF
:100C60000CB8FF08FFFFF6FEFFFFFBFFFFFFC0FF12
:100C70002CFEFCFF0D4885460D480E490E4A002308
:100C800002E0D458C4500433C4188C42F9D30B4A40
:100C90000B4C002301E013600432A242FBD3FFF7A8
:100CA000B9FF00F011F8FFF749FFFEE70040002010
:100CB0000000002004000020840D00080400002033
:100CC00024000020FEE7000070B500260C4D0D4CFE
:100CD000641BA410A64209D1002600F02BF80A4D8F
:100CE0000A4C641BA410A64205D170BDB300EB589A
:100CF00098470136EEE7B300EB5898470136F2E724
:100D00007C0D00087C0D00087C0D0008800D00089B
:100D1000002310B59A4200D110BDCC5CC4540133FD
:100D2000F8E703008218934200D17047197001332D
:100D3000F9E70000F8B5C046F8BC08BC9E4670470D
:0C0D4000F8B5C046F8BC08BC9E467047E1
:100D4C0002030405060708090A0B0C0D0E0F101000
:100D5C000102030405060708090A0B0C0D0E0F10FF
:100D6C00000000000000000001020304060708094F
:040D7C00E900000882
:040D8000C1000008A6
:040D840000127A00DF
:0400000508000C756E
:00000001FF
